:020000040800F2
:1000000000000220C9020008CF020008D302000845
:1000100045030008490300089103000800000000A0
:10002000000000000000000000000000D9030008EC
:10003000DD03000800000000E1030008E5030008FC
:10004000F5030008F5030008F5030008F5030008B0
:10005000F5030008F5030008F5030008F5030008A0
:10006000F5030008F5030008F5030008F503000890
:10007000F5030008F5030008F5030008F503000880
:10008000F5030008F5030008F50300080000000070
:10009000000000000000000000000000F503000860
:1000A000F5030008F5030008F5030008F503000850
:1000B000F5030008F5030008F5030008F503000840
:1000C000F5030008F5030008F5030008F503000830
:1000D000F5030008F5030008F50300080000000020
:1000E000F5030008F5030008F50300080000000010
:1000F000000000000000000000000000F503000800
:1001000000000000F5030008F5030008F5030008EF
:1001100000000000000000000000000000000000DF
:10012000F5030008F5030008F5030008F5030008CF
:10013000F5030008000000000000000000000000BF
:10014000000000000000000000000000F5030008AF
:10015000F5030008F5030008F5030008F50300089F
:10016000F5030008F503000800000000000000008F
:10017000000000000000000000000000000000007F
:1001800000000000F503000800000000000000006F
:10019000F5030008F503000800B583B000F018FF70
:1001A000384B394A1360394A1360394906E052F82E
:1001B000041B43F8041B9842F9D86146354B994219
:1001C00005D20A684B6801F10C0C8868F3E72E4BE6
:1001D0001A68314B9A4200D0FEE72C4B1A682F4B1D
:1001E0009A42F9D1274B2E4A13602E4A13602E4AA9
:1001F00000E002462D4B9A4209D2104650F8083BC7
:1002000051689942F5D9002243F8042BF9E7244BB1
:100210001B6813B9234B1B6803B1FEE700F08AFF8C
:10022000694601A800F0F2FD214C224BE41AA4100B
:10023000002504E01F4B53F8253098470135AC42A8
:10024000F8DC1D4C1D4BE41AA410002504E01B4BE8
:1002500053F8253098470135AC42F8DC00990198F5
:1002600000F07AFF0546164C164BE41AA41004E081
:10027000013C144B53F824309847002CF8DC2846F6
:1002800000F0A0FDBABADECA000000207C00002009
:10029000F803000810040008785634123254769897
:1002A000800000201C010020100400082004000829
:1002B000200400082004000820040008200400088E
:1002C000200400082004000808B5FFF765FF00BE01
:1002D000FEE71EF0040F0CBFEFF30880EFF3098078
:1002E0007146414A10472DE9F04182B004460D465F
:1002F000124B5F6BD3F838809E6A1B6B13F0020FB2
:1003000003D00E4BDB6A002B0BDB0D4800F0BCFD6D
:10031000009543463A463146204600F0CFFD00BEE8
:10032000FEE74BF6AB6100F043FE0028EDD0034B37
:100330004FF00042DA6202B0BDE8F08100ED00E06B
:100340006C23000800BEFEE71EF0040F0CBFEFF3A5
:100350000880EFF309807146244A10472DE9F041E7
:1003600082B004460D46084B5F6BD3F838809E6A16
:10037000064800F089FD009543463A46314620463E
:1003800000F09CFD00BEFEE700ED00E07C230008CD
:100390001EF0040F0CBFEFF30880EFF309807146E5
:1003A000134A10472DE9F04182B004460D46084B30
:1003B0005F6BD3F838809E6A064800F065FD0095B3
:1003C00043463A463146204600F078FD00BEFEE73F
:1003D00000ED00E08823000800BEFEE700BEFEE757
:1003E00000BEFEE770470000E70200085D0300085A
:0803F000A503000800BEFEE7B2
:1003F8001C24000800000020800000201C240008A5
:1004080000000010000000108000002020010020E3
:080418000000001000000010BC
:1004200010B504460E4B18784FF47A73B3FBF0F313
:100430000C4A1068B0FBF3F000F09CF868B90F2C80
:1004400001D901200AE0002221464FF0FF3000F0E0
:100450004BF8054B1C60002000E0012010BD00BFE0
:1004600004000020140000200800002008B50B4BF9
:100470001A6842F400721A601A6842F480621A60C4
:100480001A6842F480721A60032000F00FF80F20FF
:10049000FFF7C6FF00F061FE002008BD003C0240EF
:1004A000014B1868704700BF8400002010B5044657
:1004B000C31E042B0FD80A4AD36823F4E0631B043D
:1004C0001B0C240204F4E064234343F0BF6343F4B1
:1004D0000033D36010BD9221024800F033FEEAE7FA
:1004E00000ED00E0EC21000870B505460C4616460C
:1004F0000F2A25D80F2C28D81B4BDB68C3F3022307
:10050000C3F10701042928BF04211A1D062A21D995
:10051000033B4FF0FF3202FA01F124EA01049C4050
:1005200002FA03F326EA03063443002D14DB240108
:10053000E4B205F1604505F5614585F8004370BDFD
:10054000AA210A4800F0FEFDD4E7AB21074800F0DD
:10055000F9FDD1E70023DCE705F00F052401E4B243
:10056000034B5C55EBE700BF00ED00E0EC21000819
:1005700014ED00E00138B0F1807F0BD24FF0E023A2
:100580005861054AF02182F8231000209861072263
:100590001A6170470120704700ED00E010B5044675
:1005A000042800D040B9042C0CD04FF0E02213698D
:1005B00023F00403136110BD40F2C911054800F097
:1005C000C1FDF0E74FF0E022136943F0040313612B
:1005D000F1E700BFEC210008002800F0578270B559
:1005E00082B0044603680F2B39D8236813F0010F3B
:1005F0004DD063682BB1B3F5803F02D0B3F5A02F87
:1006000032D1804B9B6803F00C03042B36D07D4B1A
:100610009B6803F00C03082B2BD06368B3F5803F75
:100620005FD0B3F5A02F62D0764B1A6822F48032E7
:100630001A601A6822F480221A606368002B60D066
:10064000FFF72EFF05466F4B1B6813F4003F1ED1CA
:10065000FFF726FF401B6428F5D903201DE2E8219F
:10066000694800F06FFDC0E7ED21674800F06AFDC2
:10067000C7E7644B5B6813F4800FCED0614B1B68F7
:1006800013F4003F03D06368002B00F0018223685D
:1006900013F0020F66D0E368012B41D823691F2BAA
:1006A00044D8584B9B6813F00C0F4AD0554B9B68AD
:1006B00003F00C03082B3FD0E368002B77D0534B9B
:1006C00001221A60FFF7ECFE05464E4B1B6813F043
:1006D000020F63D1FFF7E4FE401B0228F5D9032087
:1006E000DBE1484A136843F480331360A5E7454BC8
:1006F0001A6842F480221A601A6842F480321A6042
:100700009BE7FFF7CDFE05463E4B1B6813F4003F09
:10071000BDD0FFF7C5FE401B6428F5D90320BCE11E
:1007200040F21F11384800F00DFDB7E74FF490710B
:10073000354800F007FDB4E7324B5B6813F4800FD7
:10074000BAD1304B1B6813F0020F03D0E368012BC2
:1007500040F0A0812B4A136823F0F803216943EA93
:10076000C1031360236813F0080F51D06369012B94
:100770002FD863699BB3254B0122C3F8802EFFF766
:100780008FFE05461F4B5B6F13F0020F40D1FFF742
:1007900087FE401B0228F5D903207EE1194A136821
:1007A00023F0F803216943EAC1031360DAE7174B2A
:1007B00000221A60FFF774FE0546124B1B6813F007
:1007C000020FCFD0FFF76CFE401B0228F5D90320A3
:1007D00063E14FF4B0710C4800F0B4FCC9E70B4B77
:1007E0000022C3F8802EFFF75BFE0546054B5B6FCA
:1007F00013F0020F0CD0FFF753FE401B0228F5D96F
:1008000003204AE10038024020220008000047424D
:10081000236813F0040F7CD0A368012B01D9052BAA
:1008200038D1A34B1B6C13F0805F39D100230193A7
:100830009F4B1A6C42F080521A641B6C03F0805379
:100840000193019B01259B4B1B6813F4807F29D0EA
:10085000A368012B3AD0052B3ED0954B1A6F22F09E
:1008600001021A671A6F22F004021A67A368002BAC
:100870003CD0FFF715FE06468D4B1B6F13F0020FA1
:1008800045D1FFF70DFE801B41F288339842F3D922
:10089000032002E14FF4C671874800F053FCC0E723
:1008A0000025D0E7834A136843F480731360FFF791
:1008B000F7FD06467F4B1B6813F4807FC8D1FFF716
:1008C000EFFD801B0228F5D90320E6E0784A136F7C
:1008D00043F001031367C9E7754B1A6F42F0040236
:1008E0001A671A6F42F001021A67BFE7FFF7D8FDD7
:1008F00006466F4B1B6F13F0020F08D0FFF7D0FDB9
:10090000801B41F288339842F3D90320C5E0002DC3
:100910003AD1A369022B3DD8A369002B00F0BC801B
:10092000634A926802F00C02082A00F08F80022BC2
:1009300078D1E36913B1B3F5800F31D1236A3F2B2E
:1009400034D8636AC03BF02B36D8A36A022B05D09B
:10095000042B03D0062B01D0082B33D1E36A023BD2
:100960000D2B35D8554B00221A66FFF799FD054629
:100970004F4B1B6813F0007F30D0FFF791FD401BF9
:100980000228F5D9032088E0494A136C23F08053EC
:100990001364BEE740F2CF11474800F0D3FBBBE73A
:1009A0004FF4EC71444800F0CDFBC7E740F2D91199
:1009B000414800F0C7FBC4E74FF4ED713E4800F03A
:1009C000C1FBC2E740F2DB113B4800F0BBFBC5E7CF
:1009D0004FF4EE71384800F0B5FBC3E7E369226AD3
:1009E0001343626A43EA8213A26A5208013A43EA55
:1009F0000243E26A43EA02632D4A53602F4B01220D
:100A00001A66FFF74DFD0446294B1B6813F0007F63
:100A100006D1FFF745FD001B0228F5D903203CE075
:100A200000203AE0254B00221A66FFF739FD044604
:100A30001F4B1B6813F0007F06D0FFF731FD001B32
:100A40000228F5D9032028E0002026E0012B26D03B
:100A5000174B5B6803F48001E269914221D103F0F6
:100A60003F02216A8A421ED1616A47F6C0721A406B
:100A70008A421AD103F44032A16A8A4220D103F09B
:100A80007063E26A93421DD1002006E001207047A6
:100A9000012002E0012000E0002002B070BD012032
:100AA000FBE70120F9E70120F7E70120F5E700BFA8
:100AB0000038024000700040202200080000474239
:100AC0000120EAE70120E8E708B5314B9B6803F015
:100AD0000C03042B57D0082B57D12D4B5A6802F02A
:100AE0003F025B6813F4800F2AD0294B5968C1F389
:100AF000881C4FEA4C11B1EB0C006EEB0E0E4FEA66
:100B00008E1343EA90638101091A63EB0E03DB0045
:100B100043EA5173C90011EB0C0C43F10003590275
:100B200000234FEA4C2041EADC5100F017FB184B40
:100B30005B68C3F3014301335B00B0FBF3F025E0D6
:100B4000134B5968C1F3881C4FEA4C11B1EB0C00F0
:100B50006EEB0E0E4FEA8E1343EA90638101091A81
:100B600063EB0E03DB0043EA5173C90011EB0C0C7D
:100B700043F10003990200234FEA8C2041EA9C5183
:100B800000F0ECFAD3E7034800E0034808BD00BFDB
:100B90000038024000127A000024F400002800F01F
:100BA000F78070B50D4604460368013B0E2B6BD8E9
:100BB000072D6FD87A4B1B6803F00F03AB4208D2A6
:100BC000EBB2774A1370136803F00F03AB4240F0A7
:100BD000E180236813F0020F29D013F0040F04D032
:100BE000704A936843F4E0539360236813F0080F4E
:100BF00004D06C4A936843F460439360A3687BB16C
:100C0000802B0DD0902B0BD0A02B09D0B02B07D070
:100C1000C02B05D0D02B03D0E02B01D0F02B3FD13F
:100C2000604A936823F0F003A1680B439360236844
:100C300013F0010F4ED06368032B37D86368012B84
:100C40003AD09A1E012A3ED9564A126812F0020F73
:100C500000F0A28053498A6822F0030213438B609C
:100C6000FFF71EFC06464F4B9B6803F00C036268BF
:100C7000B3EB820F2ED0FFF713FC801B41F28833B9
:100C80009842F0D9032076E040F25121464800F026
:100C900059FA8DE740F25221434800F053FA89E7B0
:100CA00040F27521404800F04DFAB9E74FF41F714A
:100CB0003D4800F047FAC1E73A4A126812F4003F93
:100CC000C8D1012057E0374A126812F0007FC1D125
:100CD000012050E0324B1B6803F00F03AB4207D9F1
:100CE000EAB22F4B1A701B6803F00F03AB4255D1C9
:100CF000236813F0040F14D0E3685BB1B3F5805F91
:100D000008D0B3F5A05F05D0B3F5C05F02D0B3F54E
:100D1000E05F31D1234A936823F4E053E1680B4349
:100D20009360236813F0080F15D023695BB1B3F506
:100D3000805F08D0B3F5A05F05D0B3F5C05F02D0E7
:100D4000B3F5E05F1ED1174A936823F4604321692D
:100D500043EAC1039360FFF7B7FE124B9B68C3F3EE
:100D60000313124AD35CD840114B1860114B18681A
:100D7000FFF756FB002070BD40F2BA210A4800F090
:100D8000E1F9C7E740F2C121074800F0DBF9DAE7F3
:100D9000012070470120EEE70120ECE70120EAE79F
:100DA000003C02400038024020220008982300083E
:100DB0001400002008000020014B1868704700BF95
:100DC00014000020FEE7000008B503460C4A126834
:100DD0005AB10B4A1068033323F003030344094A52
:100DE000934206D8064A136008BD054A06491160B9
:100DF000EFE700F035FB0C2303604FF0FF30F3E723
:100E00008800002000FC0120200100200123036055
:100E1000014B0B60704700BF0C0000202DE9F04330
:100E200085B004460F4643563BBB04252846214661
:100E3000ABBE0446384605B0BDE8F08314F901CBDB
:100E400003F110026A4402F810CC0133AB42F5D32F
:100E500010336B44002203F8102C4FF00408E946CD
:100E600040464946ABBE8046761B002EE2D0354652
:100E7000102E28BF10250023E8E70E46F5E708B539
:100E8000FFF7CCFF08BD00000FB400B583B004AB82
:100E900053F8042B01938021074800F0E7FA00285B
:100EA00004DC03B05DF804EB04B07047014602486F
:100EB000FFF7E5FFF5E700BF94000020F8B5044612
:100EC0000D4617461E462748FFF7DEFF21682648D5
:100ED000FFF7DAFF61682548FFF7D6FFA1682448CD
:100EE000FFF7D2FFE1682348FFF7CEFF21692248D0
:100EF000FFF7CAFF61692148FFF7C6FFA1692048D3
:100F0000FFF7C2FFE1691F48FFF7BEFF1E48FFF76A
:100F1000BBFF29461D48FFF7B7FF1D4CE16A1D487E
:100F2000FFF7B2FF216B1C48FFF7AEFFE16B1B48D8
:100F3000FFF7AAFF15F0800F0AD115F4004F0CD16E
:100F40001748FFF7A1FF06991648FFF79DFFF8BD68
:100F500039461548FFF798FFEFE731461348FFF78A
:100F600093FFEDE75022000860220008702200087D
:100F70008022000890220008A0220008B022000869
:100F8000C0220008D0220008E0220008EC2200085D
:100F900000ED00E0FC2200080C2300081C230008E0
:100FA0004C230008542300082C2300083C2300088D
:100FB00083691A888A4201D0002070470268033A88
:100FC000012A01D900207047023383610120704754
:100FD00008B500F009F8024A024B9A6008BD00BF4C
:100FE0000000000800ED00E0024B4FF000629A6044
:100FF000704700BF00ED00E0224B9B6803F00C033C
:10100000042B14D0082B16D01BB11F4B1F4A1A609B
:1010100002E01D4B1D4A1A601A4B9B68C3F3031371
:101020001B4AD15C184A1368CB4013607047164BBB
:10103000184A1A60F0E7134B59685A6802F03F02E9
:1010400011F4800F13D0134BB3FBF2F30D4A526827
:10105000C2F3881202FB03F30A4A5268C2F3014248
:1010600001325200B3FBF2F3074A1360D4E7074B97
:10107000B3FBF2F3034A5268C2F3881202FB03F394
:10108000EAE700BF00380240140000200024F4000A
:101090009823000800127A0070B594B000240194DF
:1010A000214B1A6C42F080521A641B6C03F080537F
:1010B0000193019B02941D4B1A6842F440421A604E
:1010C0001B6803F440430293029B012308934FF4EF
:1010D000803309934FF480030F93082310934FF448
:1010E000A8731193042612960723139302250E95D5
:1010F00008A8FFF771FA0F230393049505944FF4A2
:10110000805306930794294603A8FFF747FDFFF78E
:1011100053FE074BA3FB00308009FFF72BFA304644
:10112000FFF73CFA14B070BD003802400070004078
:10113000D34D621008B5FFF799F9FFF7ADFFFFF740
:101140005BFF08BD08B50A4601460248FFF79CFE52
:10115000FEE700BFA8230008FEE7704753B94AB96D
:10116000002908BF00281CBF4FF0FF314FF0FF30AF
:1011700000F074B9ADF1080C6DE904CE00F006F88A
:10118000DDF804E0DDE9022304B070472DE9F04703
:10119000089E0D4604468846002B4DD18A4294464F
:1011A00068D9B2FA82F252B101FA02F3C2F1200117
:1011B00020FA01F10CFA02FC41EA030894404FEADC
:1011C0001C45210CB8FBF5FE1FFA8CF705FB1E83AE
:1011D00041EA03430EFB07F199420BD91CEB0303D1
:1011E0000EF1FF3080F01E81994240F21B81AEF17A
:1011F000020E63445B1AA4B2B3FBF5F005FB103397
:1012000044EA034400FB07F7A7420AD91CEB040495
:1012100000F1FF3380F00881A74240F20581644469
:101220000238E41B40EA0E4000211EB1D4400023E6
:10123000C6E90043BDE8F0878B4208D9002E00F0D4
:10124000EE800021C6E900050846BDE8F087B3FA44
:1012500083F100294AD1AB4202D3824200F2F980E5
:10126000841A65EB030301209846002EE2D0C6E9FC
:101270000048DFE702B9FFDEB2FA82F2002A40F04E
:101280009180A1EB0C054FEA1C471FFA8CFE01214F
:10129000B5FBF7F307FB1350250C45EA00450EFBA1
:1012A00003F0A84208D91CEB050503F1FF3802D270
:1012B000A84200F2CB8043462D1AA4B2B5FBF7F04A
:1012C00007FB105544EA05440EFB00FEA64508D96D
:1012D0001CEB040400F1FF3502D2A64500F2BB80EE
:1012E0002846A4EB0E0440EA03409EE7C1F1200724
:1012F0008B4022FA07FC4CEA030C20FA07F405FAAB
:1013000001F31C43FD404FEA1C4900FA01F3B5FB11
:10131000F9F8200C1FFA8CFE09FB185540EA054528
:1013200008FB0EF0A84202FA01F20BD91CEB0505EE
:1013300008F1FF3A80F08880A84240F28580A8F149
:10134000020865442D1AA4B2B5FBF9F009FB10554B
:1013500044EA054500FB0EFEAE4508D91CEB050529
:1013600000F1FF346CD2AE456AD90238654440EAD8
:101370000840A0FB0294A5EB0E05A542C846A64670
:1013800056D353D05EB1B3EB080265EB0E0505FAF8
:1013900007F722FA01F3CD401F43C6E9007500218B
:1013A000BDE8F087C2F1200320FA03F10CFA02FC39
:1013B00025FA03F395400D434FEA1C471FFA8CFEB4
:1013C000B3FBF7F107FB11302B0C43EA004301FBA1
:1013D0000EF0984204FA02F408D91CEB030301F161
:1013E000FF382FD298422DD9023963441B1AADB26F
:1013F000B3FBF7F007FB103345EA034500FB0EF3A0
:10140000AB4208D91CEB050500F1FF3816D2AB4200
:1014100014D902386544ED1A40EA014138E73146F3
:10142000304607E78646E5E61846FAE64B45A9D278
:10143000B9EB020864EB0C0E0138A3E74046EAE77B
:10144000204694E74146D1E7D0467BE7023B65441E
:1014500032E7084609E76444023842E7704700BFB4
:10146000014B1868704700BF1800002010B51A4CD7
:10147000002924689AB02ADB009004904FF402708F
:10148000ADF80C0013D001394FF6FF7002910591B1
:10149000ADF80E006946204600F036F9421C01DA2C
:1014A0008B232360009B00221A701AB010BD4FF6E8
:1014B000FF7002910591ADF80E006946204600F0DC
:1014C00023F9431C01DA8B2323601AB010BD8B2350
:1014D00023604FF0FF30F8E71800002030B51446C5
:1014E000002C9BB005462BDB1A464FF4027300918B
:1014F0000491ADF80C3013D04FF6FF73013CADF8FA
:101500000E3069461E9B0294059400F0FDF8421CC3
:1015100001DA8B232B60009B00221A701BB030BDB8
:101520004FF6FF73ADF80E3069461E9B029405948A
:1015300000F0EAF8431C01DA8B232B601BB030BDAE
:101540008B2303604FF0FF30F8E700BF2DE9F04731
:101550008F689F420C461D46164638D882468889B9
:1015600010F4906F0ED108683D462A46314600F0CF
:10157000C1FCA2682368D21B2B44A2602360002018
:10158000BDE8F0874B69096903EB4308236808EB62
:10159000D878A3EB01096B1C4FEA68084B4443451C
:1015A000424684BF98464246430513D511465046ED
:1015B00000F07AFD074608B321694A4600F000FCB6
:1015C000A38923F4906343F08003A38107E00868B4
:1015D0001F46CAE7504600F0C1FD074650B107EB71
:1015E0000900A8EB09032761C4F81480A3602060F8
:1015F0002F46BAE72169504600F0F8FC0C23CAF8E0
:101600000030A38943F040034FF0FF30A381B7E7D8
:101610002DE9F04F936883B09146002B6DD0176889
:101620008D6880460C460868083743E0A38913F4A8
:10163000906F2ED0D4E90415A0EB010A05EB450507
:1016400005EBD5750AEB06006D100130A8422A465D
:1016500084BF05462A465B0536D51146404600F054
:1016600023FD00283AD052462169019000F0A8FBE2
:10167000A289019B22F4906242F08002A281A5EB34
:101680000A0203EB0A006561A2602361206035460F
:10169000B2465946524600F02DFCD9F80830A168F0
:1016A00020684D1B50449E1BA5602060C9F808604F
:1016B0001EB3083757E902B6002EFAD0B542AA4643
:1016C000B4D93546B246E4E7404600F047FD03464C
:1016D0000028D4D12169404600F088FC0C23C8F8CA
:1016E0000030A389002243F040034FF0FF30A38174
:1016F000C9E9012203B0BDE8F08F0020C9F8040059
:1017000003B0BDE8F08F00BF2DE9F04F1C468B8978
:101710001D069DB088468146924603D50B69002B75
:1017200000F0EF800023099320238DF82930302327
:101730008DF82A309AF800307B4D03940126002B57
:1017400072D0544603E014F8013F002B76D0252BCD
:10175000F9D1B4EB0A0B74D12278002A64D00023AB
:101760004FF0FF32CDE90523049307938DF85330F2
:101770001A93013404E0049A06FA03F31343049322
:10178000A246052214F8011B284600F0C9FA431BA3
:101790000028F0D1049BD80644BF20228DF85320A6
:1017A00019079AF8001044BF2B228DF853202A29DC
:1017B00054D1039A11680432002903927CDB07910B
:1017C0009AF801100AF1010A2E2959D0574C032228
:1017D000204600F0A5FA40B1049B001B402404FA07
:1017E00000F0034304930AF1010A1AF8011B504860
:1017F0008DF82810062200F093FA002862D04D4B95
:10180000002B52D003AA00924B4B424604A94846F3
:10181000AFF3008007467A1C06D0099B3B4409932E
:101820009AF80030002B8CD1B8F80C305B0654BF0E
:1018300009984FF0FF301DB0BDE8F08FB4EB0A0BF4
:10184000F2D05B46524641464846FFF77FFE0130E4
:10185000EAD0099B22785B4409937EE7A1F130022C
:10186000092AB1D8079B1AF8011F03EB830302EB87
:101870004303A1F13002092AF5D92E290793A5D1F6
:101880009AF801102A2927D1039B9AF802101A68A6
:1018900005920433002A0AF102000393B8BF4FF007
:1018A000FF338246B8BF059390E7039B073323F0CD
:1018B000070308330393B0E7494243F0020307915B
:1018C00004937DE703AA00921B4B424604A94846B5
:1018D00000F0CAF807469EE7A1F130020023092A6A
:1018E00005930AF1010A3FF671AF1AF8011F03EBE5
:1018F000830302EB4303A1F13002092AF5D90593D2
:1019000064E7402100F0D0FBC8F80000C8F81000E0
:1019100018B14023C8F8143004E70C23C9F800308C
:101920004FF0FF3087E700BFD8230008E02300080E
:10193000E4230008000000004D1500082DE9F047E1
:1019400091461E460A698B68DDF820809A42B8BF2E
:101950001A46C9F8002091F843300C46054613B1E9
:101960000132C9F80020226891065DD5D9F800300F
:101970000233C9F80030226812F0060F11461ED15A
:10198000E168CB1A002BD8BF114618DD04F1190A03
:10199000002706E0D9F80030E268A2EB030CBC4552
:1019A0000CDD0123524631462846C047013007F17D
:1019B0000107EFD14FF0FF30BDE8F087216894F8C0
:1019C0004330003B18BF01238A060AD5E1185A1C90
:1019D000302081F84300224494F8451082F84310E7
:1019E000023304F1430231462846C0470130E1D0BA
:1019F000236803F00603042B1DD0A36822699342D9
:101A000025DD00279B1A1F4404F11A09002401E078
:101A1000BC421CDA01234A4631462846C047013001
:101A200004F10104F4D1C5E712F0060F12D0003B17
:101A300018BF0123D5E7D9F80030E1682269C91A37
:101A4000A368934221EAE177DCDC0029DCDC00209A
:101A5000BDE8F087E168D9F80030CB1A002BD8BF79
:101A6000114693DCABE700BF2DE9F043174685B084
:101A70000A7E0C9D0C460646984601F1430C002A4E
:101A800033D0A2F15803D9B2202967D8202B65D8CA
:101A9000DFE813F0DE0064006400640064006400AA
:101AA00064006400640064006400A3006E006400CD
:101AB0006400640064006E006400640064006400FC
:101AC00021007F00C00064006400AE0064007F005D
:101AD00064006400E50023681A0640F104812B6865
:101AE0006269191D29601B681A600023E1462361A1
:101AF000CDF800803B4603AA21463046FFF71EFF83
:101B0000013020D023694A4639463046C04701306B
:101B100019D02368E06803999B0719D5431A002B55
:101B200016DD04F11909002504E0E0680399431A61
:101B3000AB420DDD01234A4639463046C0470130ED
:101B400005F10105F1D14FF0FF3005B0BDE8F0839C
:101B50008842B8BF084605B0BDE8F083012384F889
:101B60004220236104F14209002384F84330BFE797
:101B70002368190602D45A0600F1C18029680A6850
:101B8000043129601146002A6BDBDFF884E10A2565
:101B900010E02368180640F19C802B68191D29600D
:101BA0001968DFF86CE16F2A0CBF08250A250023AD
:101BB00084F843306268A260002A7FDB236823F048
:101BC0000403236000295BD1002A79D1E146082D66
:101BD00065D0ACEB090323618AE72B680122196801
:101BE00004332B6004F1420984F842102261BBE700
:101BF0002B686268191D2960D3F8009000214846BF
:101C000000F08EF8002800F08180A0EB09006060F1
:101C10002061A9E7236843F0200323607822DFF8DE
:101C2000F4E084F845202A68111D2960190643D480
:101C30005D0641D51188D80744BF43F020032360D7
:101C4000002944D1236823F0200323601025AEE748
:101C5000582384F84530DFF8B8E02368E3E72368C9
:101C6000DCE76268A2602D20002AC1F1000184F83F
:101C7000430002DB23F004032360DFF894E00A252D
:101C8000E146B1FBF5F305FB13100A46AA421EF824
:101C9000001009F8011D1946F3D2082D99D12368C7
:101CA000D90796D5626823699A4292DC302309F8F5
:101CB000013C09F1FF398CE71168BCE70029DFD14D
:101CC0009EF8003084F8423004F142097FE7102585
:101CD0006DE713F0400F2B6803F1040129600CBF7E
:101CE000196819885DE713F0400F2B68626903F1EA
:101CF000040129601B6814BF1A801A60F5E62A687F
:101D0000B2F9001004322A600A463CE760687FE7B7
:101D1000EC23000800240008000000000000000080
:101D200001F0FF01102A2BDB10F0070F08D010F88C
:101D3000013B013A8B422DD010F0070F42B3F6D190
:101D4000F0B441EA012141EA014122F007047FF0A9
:101D500000070023F0E80256083C85EA010586EA00
:101D6000010685FA47F5A3FA87F586FA47F6A5FA3C
:101D700087F68EB9EED1F0BC01F0FF0102F0070248
:101D800032B110F8013B013A83EA010313B1F8D1F3
:101D90000020704701387047002D06BF35460338D4
:101DA000073815F0010F07D1013015F4807F02BF0D
:101DB000013015F4C03F0130F0BC0138704700BF5E
:101DC000844641EA000313F003036DD1403A41D346
:101DD00051F8043B40F8043B51F8043B40F8043B05
:101DE00051F8043B40F8043B51F8043B40F8043BF5
:101DF00051F8043B40F8043B51F8043B40F8043BE5
:101E000051F8043B40F8043B51F8043B40F8043BD4
:101E100051F8043B40F8043B51F8043B40F8043BC4
:101E200051F8043B40F8043B51F8043B40F8043BB4
:101E300051F8043B40F8043B51F8043B40F8043BA4
:101E400051F8043B40F8043B51F8043B40F8043B94
:101E5000403ABDD2303211D351F8043B40F8043B34
:101E600051F8043B40F8043B51F8043B40F8043B74
:101E700051F8043B40F8043B103AEDD20C3205D344
:101E800051F8043B40F8043B043AF9D2043208D03C
:101E9000D2071CBF11F8013B00F8013B01D30B88AE
:101EA00003806046704700BF082A13D38B078DD08C
:101EB00010F003038AD0C3F10403D21ADB071CBF5E
:101EC00011F8013B00F8013B80D331F8023B20F8C8
:101ED000023B7BE7043AD9D3013A11F8013B00F801
:101EE000013BF9D20B7803704B7843708B78837089
:101EF0006046704788420DD98B1883420AD900EB9F
:101F0000020CBAB1624613F801CD02F801CD994234
:101F1000F9D170470F2A0ED8034602F1FF3C4AB1AF
:101F20000CF1010C013B8C4411F8012B03F8012F3B
:101F30006145F9D1704740EA01039B0750D1A2F1F6
:101F4000100370B501F1200C23F00F0501F1100E04
:101F500000F11004AC441B095EF8105C44F8105CFE
:101F60005EF80C5C44F80C5C5EF8085C44F8085CB5
:101F70005EF8045C44F8045C0EF1100EE64504F1D2
:101F80001004E9D1013312F00C0F01EB031102F040
:101F90000F0400EB031327D0043C24F003064FEAA0
:101FA000940C1E441C1F8E465EF8045B44F8045FCC
:101FB000B442F9D10CF1010402F0030203EB8403F3
:101FC00001EB840102F1FF3C4AB10CF1010C013B31
:101FD0008C4411F8012B03F8012F6145F9D170BD34
:101FE00002F1FF3C03469BE72246EBE7002951D074
:101FF00038B551F8043C0C1F002BB8BFE418054657
:1020000000F0E6F8274A13682BB1A3420CD92168E7
:10201000601883422CD0636028461460BDE83840C5
:1020200000F0D8B8A3420FD81A465B68002BF9D14C
:1020300011685018844217D02DD36360546028462D
:10204000BDE8384000F0C6B811685018A04215D05D
:1020500021D8216860188342EFD118685B68014479
:10206000C4E900135460EAE7236819441160E6E705
:1020700018685B680144C4E90013CDE72068014497
:10208000501883421160DAD1D3E900030144C2E958
:102090000013D4E770470C232B602846BDE8384076
:1020A00000F098B814010020F8B5CD1C25F0030508
:1020B00008350C2D38BF0C25002D064623DBA94220
:1020C00021D8254F00F084F83A6822B3144603E083
:1020D00063682246FBB11C4623685B1BF8D40B2BBC
:1020E00015D8636894420CBF3B605360304600F0E3
:1020F00071F804F10B00231D20F00700C21A01D073
:102100001B1AA350F8BD0C2333600020F8BD2360D8
:102110001C442560EAE77968C9B12946304600F0D9
:1021200045F8431C0CD0C41C24F00304A04205D085
:10213000211A304600F03AF8013001D02560D5E789
:102140000C233046336000F045F80020F8BD3046DF
:1021500000F02CF87860E0E714010020F8B5144690
:10216000F9B1CAB106460D4600F036F8A04202D3D6
:102170002F463846F8BD21463046FFF795FF074603
:102180000028F6D022462946FFF71AFE3046294697
:10219000FFF72CFF3846F8BD2746FFF727FF3846E4
:1021A000F8BDBDE8F8401146FFF77EBF38B5074DD2
:1021B0000022044608462A60FEF706FE431C00D0B3
:1021C00038BD2B68002BFBD0236038BD8C0000206D
:1021D000704700BF704700BF51F8040C0028A0F101
:1021E0000400BCBF0B58C018704700BF2E2E2F73C1
:1021F000797374656D2F7372632F73746D333266E8
:10220000342D68616C2F73746D3332663478785F67
:1022100068616C5F636F727465782E630000000004
:102220002E2E2F73797374656D2F7372632F7374F1
:102230006D333266342D68616C2F73746D33326682
:102240003478785F68616C5F7263632E63000000AE
:10225000537461636B206672616D653A0A00000019
:10226000205230203D2020253038580A0000000040
:10227000205231203D2020253038580A000000002F
:10228000205232203D2020253038580A000000001E
:10229000205233203D2020253038580A000000000D
:1022A00020523132203D20253038580A00000000ED
:1022B000204C52203D2020253038580A00000000D4
:1022C000205043203D2020253038580A00000000CF
:1022D00020505352203D20253038580A000000007D
:1022E0004653522F4641523A0A00000020434653BB
:1022F00052203D2020253038580A000020484653FF
:1023000052203D2020253038580A000020444653F2
:1023100052203D2020253038580A000020414653E5
:1023200052203D2020253038580A0000204D4D46CF
:102330004152203D20253038580A000020424641B5
:1023400052203D2020253038580A00004D69736323
:102350000A000000204C522F4558435F5245545507
:10236000524E3D20253038580A0000005B4861720B
:10237000644661756C745D0A000000005B42757311
:102380004661756C745D0A005B55736167654661F3
:10239000756C745D0A000000000000000000000081
:1023A000010203040607080957726F6E6720706107
:1023B00072616D65746572732076616C75653A2023
:1023C00066696C65202573206F6E206C696E6520D0
:1023D00025640D0A00000000232D302B2000000092
:1023E000686C4C0065666745464700003031323303
:1023F0003435363738394142434445460000000001
:10240000303132333435363738396162636465666A
:0124100000CB
:0824140078EDFF7F01000000DC
:10241C007856341201FFFFFF1000000090000020DE
:10242C00000000000024F4001C000020000000004C
:10243C000000000000000000000000000000000090
:10244C000000000000000000000000000000000080
:10245C000000000000000000000000000000000070
:10246C000000000000000000000000000000000060
:10247C000000000000000000000000000000000050
:10248C0000000000000000000000000032547698AC
:040000050800019955
:00000001FF
